S02100004F6E2D44656D616E64205472616666696320436F6E74726F6C2E73726563F0
S11300000C942A000C94BF010C9434000C9434001A
S11300100C9434000C9434000C9434000C9434008C
S11300200C9434000C9434000C9434000C9434007C
S11300300C9434000C9434000C9434000C9434006C
S11300400C9434000C9434000C9434000C9434005C
S11300500C94340011241FBECFE5D8E0DEBFCDBF21
S11300600E943E000C9435020C94000061E00E9452
S11300704C00089561E00E94E500089580E00E942C
S1130080360088E00E94360062E086E00E94E401C7
S113009088E00E943A00FCCF883008F5613071F4A2
S11300A04AB321E030E0B90102C0660F771F8A9598
S11300B0E2F7CB01842B8ABB80E0089561117BC0F9
S11300C04AB321E030E0B90102C0660F771F8A9578
S11300D0E2F7CB01809584238ABB80E008958031C8
S11300E010F58850613071F447B321E030E0B90174
S11300F002C0660F771F8A95E2F7CB01842B87BB7A
S113010080E00895611159C047B321E030E0B9019E
S113011002C0660F771F8A95E2F7CB01809584238E
S113012087BB80E00895883110F58051613071F407
S113013044B321E030E0B90102C0660F771F8A950D
S1130140E2F7CB01842B84BB80E00895611137C0B2
S113015044B321E030E0B90102C0660F771F8A95ED
S1130160E2F7CB018095842384BB80E0089580323C
S113017040F58851613071F441B321E030E0B901B8
S113018002C0660F771F8A95E2F7CB01842B81BBEF
S113019080E00895611117C041B321E030E0B90156
S11301A002C0660F771F8A95E2F7CB0180958423FE
S11301B081BB80E0089582E0089582E0089582E0A2
S11301C0089581E0089582E00895883008F561304B
S11301D071F44BB321E030E0B90102C0660F771F20
S11301E08A95E2F7CB01842B8BBB80E008956111E3
S11301F079C04BB321E030E0B90102C0660F771F2C
S11302008A95E2F7CB01809584238BBB80E0089527
S1130210803110F58850613071F448B321E030E04A
S1130220B90102C0660F771F8A95E2F7CB01842BD0
S113023088BB80E00895611157C048B321E030E0E5
S1130240B90102C0660F771F8A95E2F7CB0180954A
S1130250842388BB80E00895883108F5613071F407
S113026045B321E030E0B90102C0660F771F8A95DB
S1130270E2F7CB01842B85BB80E00895611136C081
S113028045B321E030E0B90102C0660F771F8A95BB
S1130290E2F7CB018095842385BB80E0089580320A
S11302A038F5613071F442B321E030E0B90102C0A5
S11302B0660F771F8A95E2F7CB01842B82BB80E01F
S11302C00895611117C042B321E030E0B90102C0C2
S11302D0660F771F8A95E2F7CB018095842382BB52
S11302E080E0089583E0089583E0089583E008950D
S11302F081E0089583E00895883070F44BB321E0E1
S113030030E0B90102C0660F771F8A95E2F7CB018E
S113031084278BBB80E00895803178F4885048B3FB
S113032021E030E0B90102C0660F771F8A95E2F739
S1130330CB01842788BB80E00895883170F445B3ED
S113034021E030E0B90102C0660F771F8A95E2F719
S1130350CB01842785BB80E00895803270F442B3DA
S113036021E030E0B90102C0660F771F8A95E2F7F9
S1130370CB01842782BB80E0089581E008951F9219
S11303800F920FB60F9211242F933F934F935F93C5
S11303906F937F938F939F93AF93BF93EF93FF9349
S11303A080E00E947C01FF91EF91BF91AF919F91FA
S11303B08F917F916F915F914F913F912F910F900A
S11303C00FBE0F901F901895863079F4643008F0B2
S11303D041C08BB780648BBF85B785BF85B785BFA8
S11303E081B38B7F81BB80E03CC08730B9F464303B
S11303F098F58BB780688BBF85B78F7E85BF25B78F
S113040082E090E002C0880F991F6A95E2F7822B80
S113041085BF81B3877F81BB80E023C08530F1F441
S1130420623059F48BB780628BBF84B78F7B84BFF3
S113043087B38B7F87BB80E014C0633089F48BB7AC
S113044080628BBF84B7806484BF87B38B7F87BB94
S113045080E007C082E005C082E003C081E001C003
S111046082E0811101C078940895F894FFCFD2
S9030000FC
