:100000000C942A000C9434000C9434000C943400AA
:100010000C9434000C9434000C9434000C94340090
:100020000C9434000C9434000C9434000C94340080
:100030000C9434000C9434000C9434000C94340070
:100040000C9434000C9434000C9434000C94340060
:100050000C94340011241FBECFE5D8E0DEBFCDBF25
:100060000E9436000C946F010C94000061E080E067
:100070000E943F0060E080E00E94D800FBCF883003
:1000800008F5613071F44AB321E030E0B90102C0F3
:10009000660F771F8A95E2F7CB01842B8ABB80E03D
:1000A000089561117BC04AB321E030E0B90102C07C
:1000B000660F771F8A95E2F7CB01809584238ABB70
:1000C00080E00895803110F58850613071F447B3B5
:1000D00021E030E0B90102C0660F771F8A95E2F790
:1000E000CB01842B87BB80E00895611159C047B3D1
:1000F00021E030E0B90102C0660F771F8A95E2F770
:10010000CB018095842387BB80E00895883110F56A
:100110008051613071F444B321E030E0B90102C094
:10012000660F771F8A95E2F7CB01842B84BB80E0B2
:100130000895611137C044B321E030E0B90102C035
:10014000660F771F8A95E2F7CB018095842384BBE5
:1001500080E00895803240F58851613071F441B3F8
:1001600021E030E0B90102C0660F771F8A95E2F7FF
:10017000CB01842B81BB80E00895611117C041B38E
:1001800021E030E0B90102C0660F771F8A95E2F7DF
:10019000CB018095842381BB80E0089582E008959F
:1001A00082E0089582E0089581E0089582E0089554
:1001B000883008F5613071F44BB321E030E0B901CB
:1001C00002C0660F771F8A95E2F7CB01842B8BBBA9
:1001D00080E00895611179C04BB321E030E0B901AE
:1001E00002C0660F771F8A95E2F7CB0180958423C2
:1001F0008BBB80E00895803110F58850613071F438
:1002000048B321E030E0B90102C0660F771F8A953C
:10021000E2F7CB01842B88BB80E00895611157C0C1
:1002200048B321E030E0B90102C0660F771F8A951C
:10023000E2F7CB018095842388BB80E00895883164
:1002400008F5613071F445B321E030E0B90102C036
:10025000660F771F8A95E2F7CB01842B85BB80E080
:100260000895611136C045B321E030E0B90102C004
:10027000660F771F8A95E2F7CB018095842385BBB3
:1002800080E00895803238F5613071F442B321E0A6
:1002900030E0B90102C0660F771F8A95E2F7CB0103
:1002A000842B82BB80E00895611117C042B321E026
:1002B00030E0B90102C0660F771F8A95E2F7CB01E3
:1002C0008095842382BB80E0089583E0089583E0D5
:1002D000089583E0089581E0089583E00895F894F7
:0202E000FFCF4E
:00000001FF
