:100000000C942A000C9434000C9434000C943400AA
:100010000C9434000C9434000C9434000C94340090
:100020000C9434000C9434000C9434000C94340080
:100030000C9434000C9434000C9434000C94340070
:100040000C9434000C9434000C9434000C94340060
:100050000C94340011241FBECFE5D8E0DEBFCDBF25
:100060000E943D000C9426010C94000061E00E9467
:100070004A0008950E94E300089580E00E9436003F
:1000800080E00E943A008FE493EC0197F1F700C002
:100090000000F6CF883008F5613071F44AB321E0F2
:1000A00030E0B90102C0660F771F8A95E2F7CB01F5
:1000B000842B8ABB80E0089561117BC04AB321E0A4
:1000C00030E0B90102C0660F771F8A95E2F7CB01D5
:1000D000809584238ABB80E00895803110F5885094
:1000E000613071F447B321E030E0B90102C0660F1E
:1000F000771F8A95E2F7CB01842B87BB80E00895B8
:10010000611159C047B321E030E0B90102C0660F68
:10011000771F8A95E2F7CB018095842387BB80E027
:100120000895883110F58051613071F444B321E0B5
:1001300030E0B90102C0660F771F8A95E2F7CB0164
:10014000842B84BB80E00895611137C044B321E063
:1001500030E0B90102C0660F771F8A95E2F7CB0144
:100160008095842384BB80E00895803240F58851D7
:10017000613071F441B321E030E0B90102C0660F93
:10018000771F8A95E2F7CB01842B81BB80E008952D
:10019000611117C041B321E030E0B90102C0660F20
:1001A000771F8A95E2F7CB018095842381BB80E09D
:1001B000089582E0089582E0089582E0089581E044
:1001C000089582E00895883070F44BB321E030E068
:1001D000B90102C0660F771F8A95E2F7CB01842729
:1001E0008BBB80E00895803178F4885048B321E0DB
:1001F00030E0B90102C0660F771F8A95E2F7CB01A4
:10020000842788BB80E00895883170F445B321E0ED
:1002100030E0B90102C0660F771F8A95E2F7CB0183
:10022000842785BB80E00895803270F442B321E0DA
:1002300030E0B90102C0660F771F8A95E2F7CB0163
:10024000842782BB80E0089581E00895F894FFCF71
:00000001FF
