S02100004F6E2D44656D616E64205472616666696320436F6E74726F6C2E73726563F0
S11300000C942A000C94E9010C9447000C944700CA
S11300100C9447000C9447000C9447000C94470040
S11300200C9447000C9447000C9447000C945A031A
S11300300C9447000C9447000C9447000C94470020
S11300400C9447000C9447000C9447000C94470010
S11300500C94470011241FBECFE5D8E0DEBFCDBF0E
S113006010E0A0E6B0E0E4ECFBE002C005900D92E5
S1130070AE36B107D9F720E0AEE6B0E001C01D927C
S1130080AA37B207E1F70E9455000C94E0050C94DE
S1130090000061E00E947600089561E00E940F0173
S11300A0089560E00E940F01089580E00E944900D5
S11300B088E00E94490061E086E00E940E0265E04B
S11300C080E00E945E0288E00E94510068EE73E0C6
S11300D080E090E00E94F20288E00E944D0068EE09
S11300E073E080E090E00E94F202EDCF883008F5E2
S11300F0613071F44AB321E030E0B90102C0660F07
S1130100771F8A95E2F7CB01842B8ABB80E00895A0
S113011061117BC04AB321E030E0B90102C0660F2F
S1130120771F8A95E2F7CB01809584238ABB80E010
S11301300895803110F58850613071F447B321E09F
S113014030E0B90102C0660F771F8A95E2F7CB0150
S1130150842B87BB80E00895611159C047B321E027
S113016030E0B90102C0660F771F8A95E2F7CB0130
S11301708095842387BB80E00895883110F58051F1
S1130180613071F444B321E030E0B90102C0660F7C
S1130190771F8A95E2F7CB01842B84BB80E0089516
S11301A0611137C044B321E030E0B90102C0660FE9
S11301B0771F8A95E2F7CB018095842384BB80E086
S11301C00895803240F58851613071F441B321E0E3
S11301D030E0B90102C0660F771F8A95E2F7CB01C0
S11301E0842B81BB80E00895611117C041B321E0E5
S11301F030E0B90102C0660F771F8A95E2F7CB01A0
S11302008095842381BB80E0089582E0089582E094
S1130210089582E0089581E0089582E00895883089
S113022008F5613071F44BB321E030E0B90102C04C
S1130230660F771F8A95E2F7CB01842B8BBB80E096
S11302400895611179C04BB321E030E0B90102C0D7
S1130250660F771F8A95E2F7CB01809584238BBBC9
S113026080E00895803110F58850613071F448B30E
S113027021E030E0B90102C0660F771F8A95E2F7EA
S1130280CB01842B88BB80E00895611157C048B32B
S113029021E030E0B90102C0660F771F8A95E2F7CA
S11302A0CB018095842388BB80E00895883108F5CC
S11302B0613071F445B321E030E0B90102C0660F4A
S11302C0771F8A95E2F7CB01842B85BB80E00895E4
S11302D0611136C045B321E030E0B90102C0660FB8
S11302E0771F8A95E2F7CB018095842385BB80E054
S11302F00895803238F5613071F442B321E030E082
S1130300B90102C0660F771F8A95E2F7CB01842BEF
S113031082BB80E00895611117C042B321E030E050
S1130320B90102C0660F771F8A95E2F7CB01809569
S1130330842382BB80E0089583E0089583E00895D8
S113034083E0089581E0089583E00895883070F48F
S11303504BB321E030E0B90102C0660F771F8A95E4
S1130360E2F7CB0184278BBB80E00895803178F4D9
S1130370885048B321E030E0B90102C0660F771F0E
S11303808A95E2F7CB01842788BB80E00895883101
S113039070F445B321E030E0B90102C0660F771F65
S11303A08A95E2F7CB01842785BB80E008958032EB
S11303B070F442B321E030E0B90102C0660F771F48
S11303C08A95E2F7CB01842782BB80E0089581E01F
S11303D008951F920F920FB60F9211242F933F93FB
S11303E04F935F936F937F938F939F93AF93BF9339
S11303F0EF93FF9380E00E94A601FF91EF91BF91DC
S1130400AF919F918F917F916F915F914F913F91A8
S11304102F910F900FBE0F901F901895863081F486
S1130420643008F040C08BB780648BBF85B785BF4C
S113043085B7682B65BF81B38B7F81BB80E03AC0F1
S11304408730A9F4643088F58BB780688BBF85B793
S1130450837F85BF85B770E0660F771F660F771FB0
S1130460682B65BF81B3877F81BB80E023C0853063
S1130470F1F4623059F48BB780628BBF84B78F7B01
S113048084BF87B38B7F87BB80E014C0633089F45B
S11304908BB780628BBF84B7806484BF87B38B7F44
S11304A087BB80E007C082E005C082E003C081E032
S11304B001C082E0811101C0789408951F93CF9305
S11304C0DF93CDB7DEB72C970FB6F894DEBF0FBE1F
S11304D0CDBF882331F0883021F0803411F0883486
S11304E041F493B7977B93BF93B7892B83BF10E0F5
S11304F001C011E0683008F040C0609360008CE0F7
S1130500E1E6F0E0DE01119601900D928A95E1F7A3
S1130510E62FF0E0EE0FFF1F81E090E08C0F9D1FAF
S1130520E80FF91F6081718180E090E00E94A404CB
S113053020E034E244E759E40E94030460936E002F
S113054070936F00809370009093710060916E00BF
S113055070916F00809170009091710020E030E004
S113056040E853E40E947305609372007093730033
S1130570809374009093750001C012E0812F2C9633
S11305800FB6F894DEBF0FBECDBFDF91CF911F91A0
S1130590089583B7887F83BF93B780916000892BC8
S11305A083BF089583B7887F83BF089512BE1092D6
S11305B076001092770010927800109279000895D6
S11305C0823070F449B721E030E0B90102C0660F0F
S11305D0771F8A95E2F7CB01842B89BF80E00895C9
S11305E083E008958F929F92AF92BF92CF92DF9251
S11305F0EF92FF926B017C010E94D602C701B60103
S11306000E94A40420E030E04AE754E40E9403047A
S11306104B015C0120917200309173004091740091
S1130620509175000E9403040E94EC030E9475041B
S11306306B017C0120916E0030916F00409170003D
S113064050917100C501B4010E9403044B015C0187
S1130650C701B6010E94A4049B01AC01C501B40109
S11306600E9403049B01AC0160E070E080E893E425
S11306700E947F030E94750462BF80E00E94E00232
S11306800E94C9028091760090917700A091780031
S1130690B09179008C159D05AE05BF0598F30E94B5
S11306A0D202FF90EF90DF90CF90BF90AF909F90D9
S11306B08F9008951F920F920FB60F9211248F936B
S11306C09F93AF93BF938091760090917700A09110
S11306D07800B09179000196A11DB11D8093760038
S11306E090937700A0937800B0937900BF91AF9175
S11306F09F918F910F900FBE0F901F901895505897
S1130700BB27AA270E9497030C9421050E94130576
S113071038F00E941A0520F039F49F3F19F426F4AA
S11307200C9410050EF4E095E7FB0C94E104E92F1A
S11307300E94320558F3BA176207730784079507B6
S113074020F079F4A6F50C946C050EF4E0950B2ECC
S1130750BA2FA02D0B01B90190010C01CA01A0010F
S11307601124FF27591B99F0593F50F4503E68F16A
S11307701A16F040A22F232F342F4427585FF3CFAB
S1130780469537952795A795F0405395C9F77EF47C
S11307901F16BA0B620B730B840BBAF09150A1F0C5
S11307A0FF0FBB1F661F771F881FC2F70EC0BA0F4B
S11307B0621F731F841F48F4879577956795B795D3
S11307C0F7959E3F08F0B0CF9395880F08F09927CE
S11307D0EE0F9795879508950E94540590F09F37E2
S11307E048F4911116F40C946D0560E070E080E813
S11307F09FE3089526F01B16611D711D811D0C9445
S1130800E7040C9402050E9417040C9421050E942D
S11308101A0558F00E94130540F029F45F3F29F0AF
S11308200C94E10451110C946D050C9410050E9474
S1130830320568F39923B1F3552391F3951B550BB6
S1130840BB27AA2762177307840738F09F5F5F4F9F
S1130850220F331F441FAA1FA9F335D00E2E3AF0DE
S1130860E0E832D091505040E695001CCAF72BD0F6
S1130870FE2F29D0660F771F881FBB1F2617370747
S11308804807AB07B0E809F0BB0B802DBF01FF2779
S113089093585F4F3AF09E3F510578F00C94E10471
S11308A00C946D055F3FE4F3983ED4F386957795F9
S11308B06795B795F7959F5FC9F7880F911D969532
S11308C0879597F90895E1E0660F771F881FBB1F8E
S11308D0621773078407BA0720F0621B730B840B3B
S11308E0BA0BEE1F88F7E09508950E943A0588F048
S11308F09F5798F0B92F9927B751B0F0E1F0660FE0
S1130900771F881F991F1AF0BA95C9F714C0B13020
S113091091F00E946C05B1E008950C946C05672F6A
S1130920782F8827B85F39F0B93FCCF3869577954F
S11309306795B395D9F73EF4909580957095619538
S11309407F4F8F4F9F4F0895E89409C097FB3EF463
S113095090958095709561957F4F8F4F9F4F992308
S1130960A9F0F92F96E9BB279395F6958795779586
S11309706795B795F111F8CFFAF4BB0F11F460FF46
S11309801BC06F5F7F4F8F4F9F4F16C0882311F09E
S113099096E911C0772321F09EE8872F762F05C0B2
S11309A0662371F096E8862F70E060E02AF09A954D
S11309B0660F771F881FDAF7880F9695879597F942
S11309C0089597F99F6780E870E060E008958823B0
S11309D071F4772321F09850872B762F07C0662374
S11309E011F499270DC09051862B70E060E02AF035
S11309F09A95660F771F881FDAF7880F9695879563
S1130A0097F908959F3F31F0915020F48795779599
S1130A106795B795880F911D9695879597F90895D1
S1130A209FEF80EC089500240A9416161706180602
S1130A300906089500240A941216130614060506DE
S1130A400895092E0394000C11F4882352F0BB0F6F
S1130A5040F4BF2B11F460FF04C06F5F7F4F8F4FD2
S1130A609F4F089557FD9058440F551F59F05F3F0D
S1130A7071F04795880F97FB991F61F09F3F79F0BC
S1130A8087950895121613061406551FF2CF46953E
S1130A90F1DF08C0161617061806991FF1CF8695C0
S1130AA071056105089408950E943A05A0F0BEE717
S1130AB0B91788F4BB279F3860F41616B11D672F49
S1130AC0782F8827985FF7CF869577956795B11D1E
S1130AD093959639C8F30895E894BB27662777273A
S1130AE0CB0197F908950E9486050C9421050E9474
S1130AF0130538F00E941A0520F0952311F00C9488
S1130B00E1040C94100511240C946D050E94320527
S1130B1070F3959FC1F3950F50E0551F629FF0014C
S1130B20729FBB27F00DB11D639FAA27F00DB11D65
S1130B30AA1F649F6627B00DA11D661F829F2227EE
S1130B40B00DA11D621F739FB00DA11D621F839F75
S1130B50A00D611D221F749F3327A00D611D231F4B
S1130B60849F600D211D822F762F6A2F11249F5799
S1130B7050409AF0F1F088234AF0EE0FFF1FBB1F9C
S1130B80661F771F881F91505040A9F79E3F51055B
S1130B9080F00C94E1040C946D055F3FE4F3983EFF
S1130BA0D4F3869577956795B795F795E7959F5F05
S1130BB0C1F7FE2B880F911D9695879597F9089597
S1070BC0F894FFCFD3
S1110BC40100000100080040000001000400D0
S9030000FC
